:020000040800F2
:1000000000300020813F0008C1060008C306000838
:10001000C5060008C7060008C90600080000000061
:10002000000000000000000000000000713A00081D
:10003000CB06000800000000113B0008753B0008DB
:10004000D13F0008D13F0008D13F0008D13F000850
:10005000D13F0008D13F0008D13F0008D13F000840
:10006000D13F0008D13F0008D13F0008D13F000830
:10007000D13F0008D13F0008D13F0008D13F000820
:10008000D13F0008D13F0008D13F0008D13F000810
:10009000D13F0008D13F0008D13F0008D13F000800
:1000A000D13F0008D13F0008D13F0008D13F0008F0
:1000B000D13F0008D13F000800000000D13F0008F8
:1000C000D13F00080000000000000000D13F000800
:1000D00000000000D13F0008D13F0008D13F0008D8
:1000E000D13F0008D13F00080000000000000000E0
:1000F0000000000000000000000000000000000000
:1001000000000000000000000000000000000000EF
:100110000000000000000000CD060008D13F0008EC
:1001200000000000000000000000000000000000CF
:1001300000000000000000000000000000000000BF
:10014000D13F0008D13F000800000000000000007F
:10015000000000000000000000000000000000009F
:10016000000000000000000000000000000000008F
:10017000000000000000000000000000000000007F
:0801800000000000D13F00085F
:100190000348044B834202D0034B03B11847704716
:1001A0007400002074000020000000000548064B89
:1001B0001B1AD90F01EBA301491002D0034B03B165
:1001C00018477047740000207400002000000000F1
:1001D00010B5064C237843B9FFF7DAFF044B13B18F
:1001E0000448AFF300800123237010BD7400002089
:1001F00000000000F04E000808B5044B1BB1044994
:100200000448AFF30080BDE80840CFE700000000DD
:1002100078000020F04E0008000000000000000000
:1002200001F0FF01102A2BDB10F0070F08D010F8A7
:10023000013B013A8B422DD010F0070F42B3F6D1AB
:10024000F0B441EA012141EA014122F007047FF0C4
:1002500000070023F0E80256083C85EA010586EA1B
:10026000010685FA47F5A3FA87F586FA47F6A5FA57
:1002700087F68EB9EED1F0BC01F0FF0102F0070263
:1002800032B110F8013B013A83EA010313B1F8D10E
:100290000020704701387047002D06BF35460338EF
:1002A000073815F0010F07D1013015F4807F02BF28
:1002B000013015F4C03F0130F0BC0138704700BF79
:1002C00030B589B0002403940494059406940794EF
:1002D000164B5A6942F480025A615A6902F480024C
:1002E0000092009A5A6942F400325A615A6902F443
:1002F00000320192019A5A6942F480225A615B6984
:1003000003F480230293029B094D2246382128469C
:1003100001F0F2FA38230393012304930594069421
:1003200003A9284601F00AFA09B030BD00100240C6
:100330000004004838B500220821104801F0DCFA1A
:1003400007E0012208210D4801F0D6FA322003F01F
:1003500039FD0B4D4FF0FF31286803F045FD094B87
:100360001C78E4B2286803F06FFD002CE9D100226C
:100370000821024801F0C0FAE8E700BF0004004885
:10038000900000209400002008B50268034B9A42B8
:1003900000D008BD00F094FCFBE700BF0010004057
:1003A00008B572B6014803F055FEFBE7404F000860
:1003B00008B50B480B4B03604FF416434360002312
:1003C0008360C36003610C2242618361C361036285
:1003D000436200F032FC00B908BDFFF7E1FF00BF47
:1003E000A00000200044004008B51148114B0360F4
:1003F000114B4360002383600122C26003614361AB
:100400008361C361036201F064FC50B900210848B4
:1004100001F082FD38B90021054801F0ABFD20B99B
:1004200008BDFFF7BDFFFFF7BBFFFFF7B9FF00BF38
:100430008C010020005400402B1D200008B50F48FF
:100440000F4B03604FF482734360002383604FF4CB
:100450004072C260036143614FF400728261C36104
:100460000362436283620722C2620363436303F051
:1004700018FD00B908BDFFF793FF00BF2801002059
:1004800000300140052801D90020704700B585B033
:100490000023ADF80C300C4B33F81010490089B232
:1004A0004FF0FF330093022303AA084801F076FCC3
:1004B00040B99DF80C309DF80D0040EA032005B0CE
:1004C0005DF804FBFFF76CFF804F00088C010020F3
:1004D000052801D90020704700B585B00023ADF88C
:1004E0000C300C4B33F81010490089B24FF0FF3339
:1004F0000093022303AA084801F050FC40B99DF87C
:100500000C309DF80D0040EA032005B05DF804FBB7
:10051000FFF746FF804F00088C01002030B58BB0FC
:100520000023079308930993019302930393049381
:1005300005930693234803F04CFC234B186024E0FA
:1005400000240AE02046FFF7C3FF0AAB03EB440395
:1005500023F8240C15FA80F501340B2CF2DDB5F5E7
:100560007A7F22D9184C4FF0FF31206803F03CFC11
:10057000164B01221A70206803F066FC1021144803
:1005800001F0BFF9642003F01DFC00242546052C72
:10059000D6DC2046FFF776FF0AAB03EB440323F8D3
:1005A0000C0C15FA80F50134F1E7074C4FF0FF31E0
:1005B000206803F019FC054B00221A70206803F034
:1005C00043FCDBE7784F00089000002094000020F7
:1005D0000004004800B597B0282200210CA803F0C1
:1005E00031FD00230793089309930A930B9301931A
:1005F0000293039304930593069302230C93012320
:100600001093102311930CA800F06CFBA8B90F23D2
:1006100007930021089109910A910B9107A800F016
:10062000A3FE60B9202301930023049301A800F0E6
:10063000BFFF30B917B05DF804FBFFF7B1FEFFF75D
:10064000AFFEFFF7ADFE000000B58FB000F026FB57
:10065000FFF7C0FFFFF734FEFFF7AAFEFFF7C4FE67
:10066000FFF7ECFE134C0DF11C0CA646BEE80F0084
:10067000ACE80F009EE807008CE80700002107A8FF
:1006800003F06DFB0C4B1860EE4604F11C0CBCE84B
:100690000F00AEE80F009CE807008EE8070000217D
:1006A000684603F05CFB054B186003F053FBFFF753
:1006B00077FE00BF084F00089C0000209800002033
:1006C000FEE7FEE7FEE7FEE7FEE7704708B50248F3
:1006D00001F070FD08BD00BF3C04002000B583B0F0
:1006E0000D4B9A6942F001029A619A6902F0010287
:1006F0000092009ADA6942F08052DA61DB6903F015
:1007000080530193019B00220F216FF0010001F043
:1007100047F903B05DF804FB0010024010B588B043
:100720000023039304930593069307930268124BE7
:100730009A4201D008B010BD104C636943F4802385
:100740006361636903F480230193019BC0230393D6
:1007500012230493032306930423079303A9084851
:1007600000F0ECFFE36943F40013E361E36903F491
:1007700000130293029BDDE700540040001002408A
:100780000004004800B589B0002303930493059347
:10079000069307930268144B9A4202D009B05DF8A1
:1007A00004FB03F560439A6942F480529A619A69A6
:1007B00002F480520192019A5A6942F400325A615D
:1007C0005B6903F400330293029BE023039302234B
:1007D0000493032306930523079303A94FF0904046
:1007E00000F0ACFFDAE700BF0030014000B589B08F
:1007F0000023039304930593069307930268144B15
:100800009A4202D009B05DF804FB03F5E633DA69D9
:1008100042F40032DA61DA6902F400320192019A9C
:100820005A6942F400325A615B6903F4003302935F
:10083000029B48F2040303930223049303230693C9
:100840000723079303A94FF0904000F077FFD9E703
:1008500000440040026852E8003F23F4907342E8ED
:1008600000310029F6D1026802F1080353E8003F85
:1008700023F00103083242E800310029F3D1036E6E
:10088000012B06D02023C0F8803000230366836646
:100890007047026852E8003F23F0100342E800313D
:1008A0000029F6D1EEE7000010B50446836802691E
:1008B000134342691343C2691343016808684E4AEF
:1008C00002401A430A602268536823F44053E168E7
:1008D0000B435360A269236A1A4321688B6823F48F
:1008E000306313438B602368444A934214D0444AD4
:1008F000934227D002F5806293421FD01023E06913
:10090000B0F5004F20D0082B70D8DFE803F04A6024
:10091000486F636F6F6F66003A4B1B6B03F0030306
:10092000032B09D8DFE803F00204060C0023E6E7F6
:100930000423E4E70823E2E71023E0E70023DEE7EF
:100940000223DCE70023DAE7082B49D8DFE803F0CD
:10095000051F254822484848090000F0DFFD00280F
:1009600040D06268530803EB4003B3FBF2F3A3F1FA
:1009700010014FF6EF72914236D89AB222F00F0270
:10098000C3F3420313432268D36000201BE000F04E
:10099000DBFDE4E700F0BEFCE1E71B48E1E71A48B5
:1009A00002E000F0BBFD18B3636800EB5300B0FB3E
:1009B000F3F0A0F110024FF6EF739A421AD82368B1
:1009C00080B2D86000200023A366E36610BD00F06B
:1009D000BBFDE8E700F09EFCE5E74FF40040E3E7ED
:1009E0000120F0E70020EEE70120ECE70120EAE734
:1009F0000020E8E70120E6E7F369FFEF0038014057
:100A0000004400400010024000127A00436A13F0D4
:100A1000080F06D00268536823F40043416B0B4370
:100A20005360436A13F0010F06D00268536823F441
:100A30000033816A0B435360436A13F0020F06D000
:100A40000268536823F48033C16A0B435360436ADE
:100A500013F0040F06D00268536823F48023016B5F
:100A60000B435360436A13F0100F06D0026893687B
:100A700023F48053816B0B439360436A13F0200F80
:100A800006D00268936823F40053C16B0B43936054
:100A9000436A13F0400F0AD00268536823F48013AE
:100AA000016C0B435360036CB3F5801F0BD0436A9A
:100AB00013F0800F06D00268536823F40023816C82
:100AC0000B43536070470268536823F4C003416CC2
:100AD0000B435360EBE72DE9F84305460E461746F6
:100AE0009946DDF820802B68DC6936EA04040CBFE7
:100AF00001240024BC4236D1B8F1FF3FF3D000F00E
:100B0000EBF8A0EB0900404530D8B8F1000F2FD02A
:100B10002B681A6812F0040FE5D0802EE3D0402E27
:100B2000E1D0DA6912F0080F11D1DA6912F4006F1E
:100B3000D9D04FF400621A622846FFF78BFE2023BB
:100B4000C5F88430002385F8783003200CE00824B1
:100B50001C622846FFF77EFEC5F88440002385F816
:100B60007830012000E00020BDE8F8830320FBE797
:100B70000320F9E730B583B004460023C0F8843081
:100B800000F0AAF805462268126812F0080F0FD18B
:100B900023681B6813F0040F26D12023E367C4F8F1
:100BA000803000202066606684F8780003B030BD95
:100BB0006FF07E430093034600224FF4001120465D
:100BC000FFF789FF0028E3D0226852E8003F23F0B6
:100BD000800342E800310029F6D12023E367002397
:100BE00084F878300320E1E76FF07E4300932B46D2
:100BF00000224FF480012046FFF76DFF0028CCD083
:100C0000226852E8003F23F4907342E80031002943
:100C1000F6D1226802F1080353E8003F23F00103F4
:100C2000083242E800310029F3D12023C4F8803093
:100C3000002384F878300320B8E768B310B5044681
:100C4000C36F03B32423E3672268136823F001030F
:100C50001360636AE3B92046FFF726FE012811D02E
:100C60002268536823F4904353602268936823F00A
:100C70002A0393602268136843F00103136020463F
:100C8000FFF778FF10BD80F87830FFF7AFFDD9E7A8
:100C90002046FFF7BBFEDEE70120704708B5074A94
:100CA000136843F010031360032000F067FE0F2069
:100CB00001F0F0F9FFF712FD002008BD002002400E
:100CC000034A1168034B1B780B441360704700BF45
:100CD000E001002000000020014B1868704700BFB1
:100CE000E0010020002800F0FF8270B582B00446C9
:100CF000036813F0010F3BD0B44B5B6803F00C03A7
:100D0000042B1ED0B14B5B6803F00C03082B13D0EF
:100D10006368B3F5803F68D0002B40F0928003F108
:100D2000804303F504331A6822F480321A601A688B
:100D300022F480221A605DE0A44B5B6813F4803FCC
:100D4000E6D04FF4003393FAA3F3A04B19684FF4A5
:100D5000003393FAA3F3B3FA83F303F01F030122E2
:100D600002FA03F30B4203D06368002B00F0BE824B
:100D7000236813F0020F00F0C480944B5B6813F0FB
:100D80000C0F00F09C80914B5B6803F00C03082B68
:100D900000F08F802369002B00F0F080012292FA8E
:100DA000A2F3B3FA83F303F1845303F584139B0096
:100DB0001A60FFF791FF0546022393FAA3F3834BD2
:100DC0001968022393FAA3F3B3FA83F303F01F0322
:100DD000012202FA03F30B4240F0C280FFF77CFFCE
:100DE000401B0228E8D9032089E2784A136843F4BB
:100DF00080331360754AD36A23F00F03A1680B4355
:100E0000D3626368002B36D0FFF766FF05464FF4C8
:100E1000003393FAA3F36D4B19684FF4003393FA40
:100E2000A3F3B3FA83F303F01F03012202FA03F3DF
:100E30000B429DD1FFF750FF401B6428E7D90320E8
:100E40005DE2B3F5A02F09D0604B1A6822F480321E
:100E50001A601A6822F480221A60CBE703F18043FB
:100E6000A3F53C331A6842F480221A601A6842F4EF
:100E700080321A60BEE7FFF72FFF05464FF40033BC
:100E800093FAA3F3514B19684FF4003393FAA3F389
:100E9000B3FA83F303F01F03012202FA03F30B42B8
:100EA0003FF466AFFFF718FF401B6428E6D9032024
:100EB00025E2464B5B6813F4803F7FF46BAF02235F
:100EC00093FAA3F3414B1968022393FAA3F3B3FAFD
:100ED00083F303F01F03012202FA03F30B4203D052
:100EE0002369934240F004823848036823F0F803F2
:100EF0006169F82292FAA2F2B2FA82F291400B43AF
:100F00000360236813F0080F00F08C80A369002BA6
:100F100060D0012191FAA1F2B2FA82F22C4B134473
:100F20009B001960FFF7D8FE0546022393FAA3F24F
:100F300093FAA3F293FAA3F2244A516A93FAA3F321
:100F4000B3FA83F303F01F03012202FA03F30B4207
:100F500068D1FFF7C1FE401B0228E6D90320CEE18D
:100F60001A48036823F0F8036169F82292FAA2F2A2
:100F7000B2FA82F291400B430360C2E7012393FA75
:100F8000A3F3B3FA83F303F1845303F584139B00B3
:100F900000221A60FFF7A0FE0546022393FAA3F38E
:100FA0000A4B1968022393FAA3F3B3FA83F303F00D
:100FB0001F03012202FA03F30B42A2D0FFF78CFEBB
:100FC000401B0228E9D9032099E100BF001002402C
:100FD00020819010012292FAA2F2B2FA82F2B74B6B
:100FE00013449B0000221A60FFF776FE0546022399
:100FF00093FAA3F293FAA3F293FAA3F2B04A516AD6
:1010000093FAA3F3B3FA83F303F01F03012202FA66
:1010100003F30B4206D0FFF75FFE401B0228E6D920
:1010200003206CE1236813F0040F00F0A980A44BA7
:10103000DB6913F0805F20D1A14BDA6942F0805266
:10104000DA61DB6903F080530193019B01259D4B1D
:101050001B6813F4807F12D0E368012B23D073BB8D
:1010600003F1804303F504331A6A22F001021A6285
:101070001A6A22F004021A621AE00025E7E7914A90
:10108000136843F480731360FFF726FE06468D4B0A
:101090001B6813F4807FDFD1FFF71EFE801B6428DE
:1010A000F5D903202BE1864A136A43F0010313624A
:1010B000E368002B3CD0FFF70FFE06462EE0052B21
:1010C00009D07F4B1A6A22F001021A621A6A22F0D2
:1010D00004021A62ECE77A4B1A6A42F004021A62BE
:1010E0001A6A42F001021A62E2E7022393FAA3F3BA
:1010F000734B596A022393FAA3F3B3FA83F303F011
:101100001F03012202FA03F3194238D1FFF7E4FD6D
:10111000801B41F28833984200F2EC80022393FA5C
:10112000A3F293FAA3F3002BDFD0654B196AE1E732
:10113000FFF7D2FD064618E0022393FAA3F3604BB3
:10114000596A022393FAA3F3B3FA83F303F01F035C
:10115000012202FA03F3194211D0FFF7BDFD801BF3
:1011600041F28833984200F2C780022393FAA3F237
:1011700093FAA3F3002BDFD0514B196AE1E7B5BB1B
:10118000E369002B00F0BA804D4A526802F00C026D
:10119000082A00F09980022B2FD04FF0807393FA29
:1011A000A3F3B3FA83F303F1845303F584139B0091
:1011B00000221A60FFF790FD04464FF0007393FA87
:1011C000A3F33F4B19684FF0007393FAA3F3B3FAFC
:1011D00083F303F01F03012202FA03F319426BD0D9
:1011E000FFF77AFD001B0228E7D9032087E0344A85
:1011F000D36923F08053D361C2E74FF0807393FA31
:10120000A3F3B3FA83F303F1845303F584139B0030
:1012100000221A60FFF760FD05464FF0007393FA55
:10122000A3F3274B19684FF0007393FAA3F3B3FAB3
:1012300083F303F01F03012202FA03F3194206D0DD
:10124000FFF74AFD401B0228E7D9032057E01C495D
:101250004B6823F47413626A206A024313434B60A1
:101260004FF0807393FAA3F3B3FA83F303F184533B
:1012700003F584139B0001221A60FFF72DFD04463D
:101280004FF0007393FAA3F30D4B19684FF00073FE
:1012900093FAA3F3B3FA83F303F01F03012202FAD4
:1012A00003F3194206D1FFF717FD001B0228E7D907
:1012B000032024E0002022E0002020E02081901084
:1012C0000010024000700040012B1AD0104B5B68E8
:1012D00003F48031226A914215D103F47013626ADB
:1012E000934212D100200AE001207047012006E05D
:1012F000012004E0032002E0032000E0002002B00F
:1013000070BD0120FBE70120F9E70120F7E700BFEE
:10131000001002400F4B5B6803F00C02082A01D05A
:101320000D487047C3F383420C49885C094AD26A6E
:1013300002F00F020A498A5C13F4803F05D0064B85
:10134000B3FBF2F303FB00F07047064B03FB00F026
:10135000704700BF0010024000127A009C4F000846
:101360008C4F000800093D00002800F0BE8070B5D9
:101370000D460446614B1B6803F007038B420BD2FA
:101380005E4A136823F007030B431360136803F0EE
:1013900007038B4240F0AB80236813F0020F06D0A6
:1013A000574A536823F0F003A1680B435360236846
:1013B00013F0010F5AD06368012B2DD0022B40D0BF
:1013C000022292FAA2F24E4A1068022292FAA2F285
:1013D000B2FA82F202F01F02012101FA02F2104277
:1013E00000F0878046494A6822F0030213434B60AD
:1013F000FFF772FC0646424B5B6803F00C03626821
:10140000B3EB820F32D0FFF767FC801B41F28833C9
:101410009842F0D9032067E04FF4003292FAA2F22A
:10142000374A10684FF4003292FAA2F2B2FA82F20E
:1014300002F01F02012101FA02F20242D2D1012080
:1014400052E04FF0007292FAA2F22D4A10684FF06B
:10145000007292FAA2F2B2FA82F202F01F020121A5
:1014600001FA02F21042BDD101203DE0234B1B687E
:1014700003F00703AB420AD9204A136823F007039D
:101480002B431360136803F00703AB4233D1236887
:1014900013F0040F06D01A4A536823F4E063E1689E
:1014A0000B435360236813F0080F07D0144A5368A6
:1014B00023F46053216943EAC1035360FFF72AFF15
:1014C0000F4B5B6803F0F003F02292FAA2F2B2FA3B
:1014D00082F2D3400B4AD35CD8400B4B18600B4BC5
:1014E000186800F0D7FD002070BD01207047012072
:1014F000FAE70120F8E70120F6E700BF00200240EC
:1015000000100240B44F0008080000200400002032
:10151000014B1868704700BF0800002008B5FFF7AE
:10152000F7FF074B5B6803F4E0634FF4E06292FA65
:10153000A2F2B2FA82F2D340024AD35CD84008BD8C
:1015400000100240AC4F000808B5FFF7E1FF074B61
:101550005B6803F460534FF4605292FAA2F2B2FA5D
:1015600082F2D340024AD35CD84008BD001002404A
:10157000AC4F00080F2303600B4B5A6802F00302C4
:1015800042605A6802F0F00282605A6802F4E06237
:10159000C2605B68DB0803F4E0630361034B1B6814
:1015A00003F007030B607047001002400020024068
:1015B000F0B583B00446036813F4803F44D05C4B1D
:1015C000DB6913F0805F6DD1594BDA6942F08052CC
:1015D000DA61DB6903F080530193019B0125554BD0
:1015E0001B6813F4807F5FD0514B1B6A13F4407368
:1015F00021D0626802F440729A421CD04C48016AC1
:1016000021F440764FF4803393FAA3F2B2FA82F2D7
:10161000494F3A4492004FF0010CC2F800C093FACF
:10162000A3F3B3FA83F33B449B0000221A600662E3
:1016300011F0010F4CD13E4A136A23F440736168E4
:101640000B431362002D69D1236813F0010F06D0FC
:10165000374A136B23F00303A1680B43136323681A
:1016600013F0200F06D0324A136B23F01003E16809
:101670000B431363236813F0800F06D02C4AD36A00
:1016800023F4F87321690B43D362236813F4805F5A
:101690004BD0274A136B23F4807361690B431363A8
:1016A000002043E000259AE7224A136843F4807340
:1016B0001360FFF711FB06461E4B1B6813F4807F77
:1016C00092D1FFF709FB801B6428F5D903202DE098
:1016D000FFF702FB064617E0022393FAA3F3144B2D
:1016E000596A022393FAA3F3B3FA83F303F01F03B7
:1016F000012202FA03F30B429DD1FFF7EDFA801BA2
:1017000041F2883398420ED8022393FAA3F293FA57
:10171000A3F3002BE0D0064B196AE2E7D36923F06C
:101720008053D36190E7032000E0002003B0F0BDB8
:10173000001002400070004000819010F0B583B0AE
:10174000002362E085685E000324B44025EA0405B6
:10175000CC68B4402C438460456825EA0C054C688D
:10176000C4F300149C402C4344605FE0DD0808355E
:1017700050F8254003F0070C4FEA8C0C4FF00F0E89
:101780000EFA0CFE24EA0E0E0C6904FA0CF444EA7C
:101790000E0440F8254060E0032400E0002404FA31
:1017A0000EF42C430CF1020C4F4D45F82C404F4CDD
:1017B000A568D44325EA02064F6817F4801F01D0BC
:1017C00042EA0506494DAE60ED6804EA05064F6839
:1017D00017F4001F01D042EA0506444DEE606D6823
:1017E00004EA05064F6817F4003F01D042EA0506F7
:1017F0003E4D6E602D682C404E6816F4803F01D03F
:1018000042EA0504394A146001330A6832FA03F4E3
:1018100068D04FF0010C0CFA03FC1CEA0202F3D072
:101820004C6804F00304013C012C8BD94C6804F093
:101830000304032C0CD0C4685D004FF0030C0CFAB9
:1018400005FC24EA0C0C8C68AC4044EA0C04C4602F
:101850004C6804F00304022C88D004684FEA430E5D
:101860004FF0030C0CFA0EFC24EA0C0C4C6804F04C
:10187000030404FA0EF444EA0C0404604C6814F403
:10188000403FC1D01A4CA56945F00105A561A46986
:1018900004F001040194019C4FEA930C0CF1020541
:1018A000114C54F8255003F0030E4FEA8E0E0F240E
:1018B00004FA0EF425EA0405B0F1904F3FF46EAF40
:1018C0000C4CA0420AD004F58064A04208D004F574
:1018D0008064A0423FF460AF052460E701245EE726
:1018E00002245CE703B0F0BD0000014000040140A9
:1018F00000100240000400480AB181617047816213
:101900007047436901EA030221EA030141EA024107
:1019100081617047002808DB0901C9B200F160400D
:1019200000F5614080F80013704700F00F000901D6
:10193000C9B2014B1954704714ED00E000B500F036
:101940000700C0F1070CBCF1040F28BF4FF0040CD6
:10195000031D062B0FD9C31E4FF0FF3E0EFA0CF0ED
:1019600021EA000199400EFA03FE22EA0E0241EA42
:1019700002005DF804FB0023EEE70000074AD3688D
:1019800023F4E0631B041B0C000200F4E06003433B
:1019900043F0BF6343F40033D360704700ED00E0D1
:1019A00010B50446054BD868C0F30220FFF7C6FF08
:1019B00001462046FFF7AEFF10BD00BF00ED00E07E
:1019C000002807DB00F01F02400901239340024A70
:1019D00042F82030704700BF00E100E003689A69D8
:1019E00012F0020F01D000229A6203689A6912F085
:1019F000010F03D19A6942F001029A61704710B455
:101A0000019CC1F3090141EA02411943214321F03C
:101A1000004102685368640D04F4806444F07F74EC
:101A200044F4583444F47F7444F0030423EA040378
:101A30000B4353605DF8044B70472DE9F0410446B9
:101A400003689E6916F010067CD00D469046102261
:101A5000DA61002637462368986910F0200F30D1EC
:101A60007FBBB5F1FF3FF6D0FFF736F9A0EB0800DA
:101A7000A84201D8002DEED121684B6803F48043C1
:101A800094F84220D2B2886910F4004F02D00BB90A
:101A9000202A0ED123689B6913F0200FDBD1FFF7BA
:101AA0001BF9A0EB08001928F4D946F020060127FD
:101AB000D1E74B6843F480434B60FFF70DF9804654
:101AC000E8E70FB92022DA6146F004060125226812
:101AD000936913F4807F05D046F001064FF48071BE
:101AE000D161012513F4806F06D046F00806226804
:101AF0004FF48061D161012513F4007F24D046F0BA
:101B0000020623684FF40072DA6101252046FFF7D0
:101B100065FF2268536823F0FF7323F48B3323F4AB
:101B2000FF7323F001035360636C3343636420232A
:101B300084F84130002384F8423084F8403028464D
:101B4000BDE8F0810025C2E7002DF8D0DEE72DE9E1
:101B5000F8430546884617461E46DDF820902B6858
:101B60009C6938EA04040CBF01230023BB4227D13F
:101B70004A4631462846FFF760FF20BBB6F1FF3FDB
:101B8000EDD0FFF7A9F8A0EB0900B04201D8002E74
:101B9000E5D12B689B6938EA03030CBF01230023BE
:101BA000BB42DCD16B6C43F020036B64202385F8CF
:101BB0004130002385F8423085F84030012000E0B4
:101BC0000020BDE8F8830120FBE770B504460D4610
:101BD000164604E023689B6913F0200F12D0236897
:101BE0009B6913F0200F1BD1324629462046FFF790
:101BF00024FFB8B9FFF770F8801BA842EAD8002D7F
:101C0000EDD1E7E7636C43F020036364202384F89D
:101C10004130002384F8423084F84030012000E055
:101C2000002070BD0120FCE7F8B504460E461746BB
:101C3000002518E000236364FFF74EF8C01BB04294
:101C400000D886B97DB923689B6913F0040F0AD1C7
:101C5000636C43F020036364202384F84130002345
:101C600084F84030012523689B6913F0040F2ED1BE
:101C70006DBB3A4631462046FFF7DFFE00B1012535
:101C800023689A6912F0200FD6D0002DD4D19A691A
:101C90009A6912F0100FCDD01022DA610423636428
:101CA00023682022DA6121684B6823F0FF7323F454
:101CB0008B3323F4FF7323F001034B6084F841203E
:101CC000002384F8423084F840300125B4E72846E8
:101CD000F8BD00285FD010B5044690F84130002BC5
:101CE00048D0242384F841302268136823F001038C
:101CF00013606368226823F070631361226893683D
:101D000023F400439360E368012B38D0A368226872
:101D100043F404439360E368022B36D0226853688F
:101D200023F4006353602268536843F0007343F464
:101D3000004353602268D36823F40043D3602369CF
:101D400062691343A169226843EA0123D360E3690E
:101D5000216A22680B4313602268136843F0010371
:101D6000136000206064202384F84130206384F8ED
:101D7000420010BD80F84030FEF7D0FCB1E7A36808
:101D8000226843F400439360C5E72268536843F434
:101D900000635360C7E70120704700002DE9F0475A
:101DA00082B00F460A9E90F84110C9B2202940F037
:101DB000A38004469046994690F84030012B00F0ED
:101DC0009F804FF0010A80F840A0FEF785FF05468E
:101DD0000090192352464FF400412046FFF7B7FE0A
:101DE000002840F08F80222384F84130102384F8AB
:101DF000423000236364C4F82480A4F82A9063630B
:101E0000638D9BB2FF2B0BD95246A4F828A0414BFF
:101E100000934FF0807339462046FFF7F0FD18E03D
:101E2000628D92B222853B4B00934FF00073D2B289
:101E300039462046FFF7E3FD0BE0628D92B2228522
:101E4000002300934FF00073D2B239462046FFF7CB
:101E5000D6FD638D9BB2002B32D02A4631462046F8
:101E6000FFF7E2FE00284FD123685A6A636A1A70AE
:101E7000636A01336362228D013A92B22285638DD7
:101E80009BB2013B9BB26385638D9BB2002BE0D07C
:101E9000002ADED10095334680212046FFF757FE09
:101EA000A0BB638D9BB2FF2BC7D9FF2222850023E5
:101EB00000934FF0807339462046FFF7A0FDC8E736
:101EC0002A4631462046FFF780FE08BB23682022C1
:101ED000DA6121684B6823F0FF7323F48B3323F41A
:101EE000FF7323F001034B6084F84120002384F842
:101EF000423084F8403000E0022002B0BDE8F087B4
:101F00000220FAE70120F8E70120F6E70120F4E7D4
:101F10000120F2E700240080034690F84120D2B26D
:101F2000202A23D190F84020012A21D0012280F8D4
:101F30004020242280F841200068026822F001023B
:101F400002601868026822F4805202601868026811
:101F50001143016019680A6842F001020A602022F8
:101F600083F84120002083F840007047022070472A
:101F700002207047034690F84120D2B2202A21D196
:101F800090F84020012A1FD0012280F8402024220E
:101F900080F841200068026822F00102026018689F
:101FA000026822F4706242EA0122026019680A683B
:101FB00042F001020A60202283F84120002083F8C9
:101FC000400070470220704702207047034AD2F851
:101FD000883043F47003C2F88830704700ED00E0A9
:101FE00010B503460C4A0D490D48006840B10C4835
:101FF00000680344521A934206D8094A136010BD80
:102000000748084C0460F2E701F0E4FF0C2303608A
:102010004FF0FF30F3E700BF003000200004000065
:10202000E4010020E011002070B50C4616460025A2
:1020300006E0AFF30080214601F8010B01350C46A4
:10204000B542F6DB304670BD70B50C46164600252D
:1020500004E014F8010BAFF300800135B542F8DB62
:10206000304670BD4FF0FF3070474FF400534B6067
:10207000002070470120704700207047034B036029
:10208000034B0B6080231360704700BFE803002000
:10209000E801002030B589B00446214BDA6942F0EE
:1020A0001002DA61DB6903F010030193019B02A9BE
:1020B00003A8FFF75FFA069BCBB9FFF72FFA034699
:1020C000184AA2FB03239B0C013B1748174A0260E6
:1020D00040F2E732C26043600023036183608361A2
:1020E00000F076F9054630B1284609B030BDFFF75B
:1020F00015FA4300E4E70C4800F01EF805460028F6
:10210000F2D13620FFF75CFC0F2C01D90125EBE75B
:10211000002221463620FFF743FC054B1C60E3E715
:102120000010024083DE1B433C04002000100040EE
:10213000040000207047000090F83D30DBB2012B16
:102140002AD1022380F83D300268D36843F00103AE
:10215000D3600368134A934210D0B3F1804F0DD07F
:10216000A2F59432934209D002F59E32934205D0F3
:102170001A6842F001021A600020704799680A4A02
:102180000A40062A0AD0B2F5803F09D01A6842F008
:1021900001021A600020704701207047002070473C
:1021A00000207047002C0140070001007047704775
:1021B0007047704770B504460368DE681D6915F006
:1021C000020F10D016F0020F0DD06FF002021A614C
:1021D0000123037703689B6913F0030F64D0FFF7B3
:1021E000E6FF0023237715F0040F12D016F0040F3A
:1021F0000FD023686FF004021A610223237723684B
:102200009B6913F4407F55D02046FFF7D0FF002391
:10221000237715F0080F12D016F0080F0FD023689F
:102220006FF008021A61042323772368DB6913F037
:10223000030F46D02046FFF7BAFF0023237715F09F
:10224000100F12D016F0100F0FD023686FF010028D
:102250001A61082323772368DB6913F4407F37D0A2
:102260002046FFF7A4FF0023237715F0010F02D0CB
:1022700016F0010F33D115F0800F02D016F0800F49
:1022800035D115F4807F02D016F0800F37D115F0CC
:10229000400F02D016F0400F39D115F0200F02D0B8
:1022A00016F0200F3BD170BDFFF780FF2046FFF7EF
:1022B0007FFF96E72046FFF779FF2046FFF778FF7C
:1022C000A5E72046FFF772FF2046FFF771FFB4E74E
:1022D0002046FFF76BFF2046FFF76AFFC3E723683E
:1022E0006FF001021A612046FEF74EF8C3E723683B
:1022F0006FF080021A61204600F09BF8C1E7236866
:102300006FF480721A61204600F094F8BFE72368EA
:102310006FF040021A612046FFF74BFFBDE72368CC
:102320006FF020021A61204600F082F8BBE700003F
:102330000368264A904206D0B0F1804F03D0A2F540
:102340009432904203D123F070034A6813431F4A2A
:10235000904212D0B0F1804F0FD0A2F5943290424B
:102360000BD002F59E32904207D002F58062904277
:1023700003D002F58062904203D123F44073CA680F
:10238000134323F080034A69134303608B68C362DD
:102390000B6883620D4B98420BD003F5A053984213
:1023A00007D003F58063984203D003F58063984219
:1023B00001D10B69036301234361036913F0010F2A
:1023C00003D0036923F0010303617047002C01402F
:1023D00060B310B5044690F83D3013B3022384F87F
:1023E0003D30214651F8040BFFF7A2FF012384F88A
:1023F000483084F83E3084F83F3084F8403084F828
:10240000413084F8423084F8433084F8443084F812
:10241000453084F8463084F8473084F83D30002059
:1024200010BD80F83C30FFF785FED7E701207047EC
:1024300070477047704700F1080343604FF0FF3268
:102440008260C3600361002303607047002303615F
:10245000704743684B609A688A6051609960086170
:10246000036801330360704730B40D68B5F1FF3F76
:1024700011D000F108031C465B681A68AA42FAD919
:1024800063684B6099608C60616008610368013328
:10249000036030BC70470469F2E7036941688268F1
:1024A0008A60416851605A68824206D00022026107
:1024B0001A68013A1A601868704782685A60F5E72E
:1024C0000346406A18B11B6B1868C0F107007047DB
:1024D00010B5044601F0DEFAA26BE36B9A4204D019
:1024E000002401F0F9FA204610BD0124F9E710B5E7
:1024F000044601F0CFFAA36B23B9012401F0ECFAF2
:10250000204610BD0024F9E770B504461546866BD9
:10251000026C5AB903681BB100200136A66370BD76
:10252000406801F073F800236360F6E76DB98068D6
:1025300001F07AFDA368226C1344A36062689342A1
:1025400019D32368A3602846E7E7C06801F06CFD53
:10255000E368226C51429B1AE3602268934202D2E4
:1025600063680B44E360022D01D00020D5E726B15B
:10257000013E0020D1E72846CFE70020CDE7034603
:10258000026C6AB110B50846D9681144D9605C681C
:10259000A14201D31968D960D96801F045FD10BD89
:1025A000704738B5054601F075FA95F8454064B2B4
:1025B00001E0013C64B2002C0ADD6B6A43B105F115
:1025C000240000F01BFF0028F3D000F0ABFFF0E781
:1025D000FF2385F8453001F07FFA01F05BFA95F8AA
:1025E000444064B201E0013C64B2002C0ADD2B6976
:1025F00043B105F1100000F001FF0028F3D000F016
:1026000091FFF0E7FF2385F8443001F065FA38BD0B
:1026100038B5E0B10D46044601F03CFA2368E26BA0
:10262000216C01FB023060600020A063A360013ACE
:1026300002FB0133E360FF2384F8443084F8453023
:10264000FDB9236963B901F047FA012038BD4FF0A5
:10265000500383F31188BFF36F8FBFF34F8FFEE7F3
:1026600004F1100000F0CAFE0028ECD04FF0E02387
:102670004FF08052C3F8042DBFF34F8FBFF36F8F1D
:10268000E1E704F11000FFF7D6FE04F12400FFF7A4
:10269000D2FED8E710B5034602980C4631B9006067
:1026A000C36304640121FFF7B3FF10BD0260F7E7C5
:1026B00040B94FF0500383F31188BFF36F8FBFF31E
:1026C0004F8FFEE710B584B01C46844653B192B1DB
:1026D00089B94FF0500383F31188BFF36F8FBFF3B5
:1026E0004F8FFEE74FF0500383F31188BFF36F8FD6
:1026F000BFF34F8FFEE76AB148230393039B482B38
:1027000013D04FF0500383F31188BFF36F8FBFF3E3
:102710004F8FFEE70029EFD04FF0500383F311886D
:10272000BFF36F8FBFF34F8FFEE7012384F846306E
:1027300000949DF818306046FFF7ACFF204604B0C7
:1027400010BD40B94FF0500383F31188BFF36F8F72
:10275000BFF34F8FFEE7F0B583B00C461546074632
:10276000A1B101FB00F0483001F07AF8064650B103
:10277000002380F8463000902B4600F148022146A5
:102780003846FFF787FF304603B0F0BD0846EAE75A
:10279000F0B585B0019288B10F461D460446B1B12F
:1027A000022D20D1E36B012B1DD04FF0500383F39A
:1027B0001188BFF36F8FBFF34F8FFEE74FF05003C9
:1027C00083F31188BFF36F8FBFF34F8FFEE7036C66
:1027D000002BE5D04FF0500383F31188BFF36F8FC8
:1027E000BFF34F8FFEE700F0A3FE064658B9019BEA
:1027F000002B48D04FF0500383F31188BFF36F8F45
:10280000BFF34F8FFEE700263DE02A4639462046BB
:10281000FFF77AFE636A7BB948B14FF0E0234FF0CF
:102820008052C3F8042DBFF34F8FBFF36F8F01F0B9
:1028300053F9012005B0F0BD04F1240000F0DEFDE5
:102840000028F4D04FF0E0234FF08052C3F8042D5D
:10285000BFF34F8FBFF36F8FE9E701F03DF9002021
:10286000E8E702A800F010FE012619E0002384F832
:10287000443021E0002384F8453023E02046FFF770
:1028800090FE00F0B5FC01F005F9A26BE36B9A42F3
:10289000BBD3022DB9D0019B002BDED0002EE0D09F
:1028A00001F01AF900F010FC01F0F4F894F844205B
:1028B00052B2B2F1FF3FD9D094F8452052B2B2F1F2
:1028C000FF3FD7D001F008F901A902A800F0E8FD08
:1028D000D8B92046FFF7FCFD0028CFD0019904F1BC
:1028E000100000F073FD2046FFF75BFE00F080FC57
:1028F0000028C8D14FF0E0234FF08052C3F8042DD8
:10290000BFF34F8FBFF36F8FBDE72046FFF749FE40
:1029100000F06EFC00208DE748B108B50021416051
:102920000160C1600B460A46FFF732FF08BD7047E1
:1029300010B5024600210120FFF703FF0446FFF710
:10294000EBFF204610BD10B582B00B460090002270
:1029500011460120FFF7ACFE0446FFF7DDFF2046DD
:1029600002B010BD68B170B50C460546036C8BB162
:102970004FF0500383F31188BFF36F8FBFF34F8F76
:10298000FEE74FF0500383F31188BFF36F8FBFF35F
:102990004F8FFEE70368EBB101F0A2F9EFF3118668
:1029A0004FF0500383F31188BFF36F8FBFF34F8F46
:1029B000AA6BEB6B934226D995F845305BB2013296
:1029C000AA63B3F1FF3F11D001335BB285F8453004
:1029D000012019E04368002BDED04FF0500383F351
:1029E0001188BFF36F8FBFF34F8FFEE76B6A0BB990
:1029F000012009E005F1240000F000FD38B144B1E8
:102A00000120206000E0002086F3118870BD0120C5
:102A1000FAE70120F8E770B584B0019158B1044697
:102A2000036C8BB14FF0500383F31188BFF36F8FAA
:102A3000BFF34F8FFEE74FF0500383F31188BFF3CE
:102A40006F8FBFF34F8FFEE700F072FD054650B960
:102A5000019B5BB14FF0500383F31188BFF36F8F7D
:102A6000BFF34F8FFEE70026354655E0064653E09C
:102A7000013BA36323683BB123694BB901F02CF8F8
:102A80000126304604B070BD00F078FE6060F3E7C8
:102A900004F1100000F0B2FC0028EFD04FF0E0236A
:102AA0004FF08052C3F8042DBFF34F8FBFF36F8FE9
:102AB000E4E746B14FF0500383F31188BFF36F8F03
:102AC000BFF34F8FFEE701F007F8DAE702A800F046
:102AD000DBFC01252AE0002384F8443032E00023A7
:102AE00084F8453034E000F0D5FF606800F030FD38
:102AF000064600F0F1FF3BE02046FFF752FD00F0F4
:102B000077FB09E02046FFF74CFD00F071FB204603
:102B1000FFF7EDFC002842D100F0BCFFA36B002BB7
:102B2000A6D1019B002BC4D0002DCFD000F0D4FF44
:102B300000F0CAFA00F0AEFF94F844305BB2B3F193
:102B4000FF3FC8D094F845305BB2B3F1FF3FC6D029
:102B500000F0C2FF01A902A800F0A2FC0028D1D118
:102B60002046FFF7C4FC0028C6D02368002BBAD04B
:102B7000019904F1240000F029FC2046FFF711FD23
:102B800000F036FB0028C7D14FF0E0234FF0805211
:102B9000C3F8042DBFF34F8FBFF36F8FBCE70EB99F
:102BA00000266EE700F076FF2046FFF789FC01461D
:102BB000606800F083FD00F08FFFF1E72DE9F84336
:102BC000B0B10D4690460446D9B101F089F8EFF353
:102BD00011874FF0500383F31188BFF36F8FBFF35A
:102BE0004F8FA66BCEB9002087F31188BDE8F8831C
:102BF0004FF0500383F31188BFF36F8FBFF34F8FF4
:102C0000FEE7036C002BE0D04FF0500383F31188F4
:102C1000BFF36F8FBFF34F8FFEE794F844904FFAE6
:102C200089F929462046FFF7AAFC731EA363B9F170
:102C3000FF3F06D009F101035BB284F84430012064
:102C4000D2E723690BB90120CEE704F1100000F0B0
:102C5000D5FB30B1B8F1000F05D00120C8F8000055
:102C6000C2E70120C0E70120BEE70000084B1B6857
:102C70001B6823B9074B4FF0FF321A607047044BB3
:102C80001B68DB68DB685A68024B1A60704700BF3C
:102C9000F8040020900400202DE9F04707469846EC
:102CA000089DDDF824900A9C266B02F18042013ACF
:102CB00006EB820626F007064FF0000CBCF10F0F62
:102CC00009D811F80C2004EB0C0383F8342012B15E
:102CD0000CF1010CF2E7002384F84330062D00D9F3
:102CE0000625E56265644FF0000AC4F848A0201D7F
:102CF000FFF7ACFB04F11800FFF7A8FB2461C5F156
:102D00000705A5616462C4F84CA084F850A042464F
:102D10003946304600F096FE2060B9F1000F01D030
:102D2000C9F80040BDE8F08738B5002407E004EB9F
:102D3000840293000E481844FFF77DFB0134062CF3
:102D4000F5D90C4D2846FFF776FB0B4C2046FFF7D4
:102D500072FB0A48FFF76FFB0948FFF76CFB094855
:102D6000FFF769FB084B1D60084B1C6038BD00BFB6
:102D70002405002010050020FC040020E0040020B1
:102D8000CC040020B4040020F8040020F404002047
:102D900010B5044600F07EFE214A1368013313602B
:102DA000204B1B685BB1204B1B686BB91D4B1B682C
:102DB000DA6AE36A9A4207D81A4B1C6004E0194B9E
:102DC0001C601368012B28D0184A13680133136064
:102DD000E06A01238340164A11680B43136000EB3D
:102DE0008000211D134B03EB8000FFF732FB00F046
:102DF00073FE0D4B1B687BB10A4B1B68DA6AE36AF2
:102E00009A4209D24FF0E0234FF08052C3F8042DCC
:102E1000BFF34F8FBFF36F8F10BDFFF785FFD3E771
:102E2000B0040020B0050020A40400209404002079
:102E3000A80400202405002010B5044690F8513065
:102E400063B1012B11D0022B0ED04FF0500383F34E
:102E50001188BFF36F8FBFF34F8FFEE7006B00F059
:102E60007BFD204600F078FD10BD00F075FDFBE70E
:102E70000F4B1B68D3B110B500F00CFE0D4BDB6897
:102E8000DC68201DFFF709FB0B4A1368013B136048
:102E9000074A1368013B136000F01EFE2046FFF74F
:102EA000CBFF034B1B68002BE6D110BD704700BF62
:102EB000C8040020CC040020B004002008B5FFF7AF
:102EC000D7FF074B1B68012BF9D94FF0E0234FF0D8
:102ED0008052C3F8042DBFF34F8FBFF36F8FEEE71F
:102EE0002405002070B504460D461D4B1E681D4B81
:102EF00018680430FFF7D1FA48B91A4B1B68DB6A2F
:102F000001229A4018490B6823EA02030B60B4F1CE
:102F1000FF3F0DD03444134B1B685C60A64210D9B0
:102F2000124B18680F4B19680431FFF79DFA70BDFA
:102F3000002DEFD00B4B196804310D48FFF789FACB
:102F4000F5E70C4B1868074B19680431FFF78CFA4A
:102F5000094B1B68A342EAD9074B1C60E7E700BF97
:102F6000AC040020B0050020A8040020F4040020D8
:102F7000B4040020F80400209004002030B587B08D
:102F80000B9C7CB10C9DB5B154250495049D542D2A
:102F90001AD04FF0500383F31188BFF36F8FBFF344
:102FA0004F8FFEE74FF0500383F31188BFF36F8F0D
:102FB000BFF34F8FFEE74FF0500383F31188BFF349
:102FC0006F8FBFF34F8FFEE70C9D2C63022485F8B3
:102FD000514000240394029505AC01940A9C00948E
:102FE000FFF75AFE0C98FFF7D3FE059807B030BDE7
:102FF0002DE9F04385B00746884614461E469000EA
:1030000000F02EFC08B38146542000F029FC054650
:10301000A8B1C0F83090002380F85130039302909B
:103020000D9B01930C9B0093334622464146384644
:10303000FFF732FE2846FFF7ABFE012007E04846C7
:1030400000F08AFC4FF0FF3001E04FF0FF3005B098
:10305000BDE8F08310B588B000240594069407AA53
:1030600006A905A8FFF70AF8059B0293069B0193A2
:1030700000942346079A0E490E48FFF77FFF0E4B38
:10308000186090B14FF0500383F31188BFF36F8F36
:10309000BFF34F8F094B4FF0FF321A60084B0122EC
:1030A0001A60084B1C6000F08FFD08B010BD00BF17
:1030B000704F0008BD2E00088C04002090040020F2
:1030C000A4040020AC040020024A136801331360FA
:1030D000704700BF88040020F8B53A4B1B68002BEE
:1030E00064D1394B1D6801351D60C5B9374B1B686C
:1030F0001B6843B14FF0500383F31188BFF36F8F08
:10310000BFF34F8FFEE7314A1168314B18681060EA
:103110001960304A136801331360FFF7A7FD2E4B87
:103120001B68AB4238D900272C4B1B68DB6A03EBCA
:1031300083039A002A4B9B58012B3CD901273AE084
:103140000127224B1B681B6843B3204B1B68DB68BD
:10315000DC6863689D4226D3261D3046FFF79DF943
:10316000A36A1BB104F11800FFF797F9E36A012283
:103170009A401C49086802430A6003EB83039A00E3
:10318000314617481044FFF764F9E26A134B1B6895
:10319000DB6A9A42D4D2D4E70027D2E70E4B4FF035
:1031A000FF321A60C0E70C4A1360BDE70E4A13688D
:1031B0000133136000270D4B1B6803B1012738460C
:1031C000F8BD00BF88040020AC040020F8040020F3
:1031D000F40400209804002090040020B005002092
:1031E00024050020A8040020A00400209C04002046
:1031F00038B5354B1B6843B94FF0500383F3118842
:10320000BFF36F8FBFF34F8FFEE700F043FC2E4BF1
:103210001A68013A1A601B68002B4FD12B4B1B68B0
:103220000BB900244BE00024294B1B681BB3284B2F
:10323000DB68DC6804F11800FFF72FF9251D28462C
:10324000FFF72BF9E06A01238340224A11680B4300
:10325000136000EB800029461F4B03EB8000FFF753
:10326000F8F8E26A1D4B1B68DB6A9A42DCD31C4B00
:1032700001221A60D8E70CB1FFF7F8FC194B1C6863
:1032800084B9174B1C68D4B14FF0E0234FF0805243
:10329000C3F8042DBFF34F8FBFF36F8F01240EE0EF
:1032A000013C07D0FFF718FF0028F9D00C4B012292
:1032B0001A60F5E70B4B00221A60E2E7002400F0E9
:1032C0000BFC204638BD00BF88040020B00400205D
:1032D000E0040020A804002024050020B005002000
:1032E0009C040020A004002010B5A8B10446104B97
:1032F0001B6843B14FF0500383F31188BFF36F8F06
:10330000BFF34F8FFEE7FFF7DFFE00212046FFF7F8
:10331000E9FDFFF76DFF48B94FF0E0234FF0805211
:10332000C3F8042DBFF34F8FBFF36F8F10BD00BFE5
:1033300088040020204B1B681BB1204B01221A601F
:1033400070471E4B00221A601D4B1B68B3FA83F3B3
:10335000DBB2C3F11F0303EB83018A0019498A58CA
:1033600042B94FF0500383F31188BFF36F8FBFF35F
:103370004F8FFEE7134803EB83018A000244516834
:103380004968516003EB830C4FEA8C020832024417
:10339000914209D003EB83039A000A4B13445B6804
:1033A000DA68094B1A607047486862469100054A1E
:1033B0000A445060EEE700BF880400209C0400200F
:1033C000A804002024050020B005002058B110B545
:1033D0000C46094A11681831FFF746F801212046CA
:1033E000FFF780FD10BD4FF0500383F31188BFF34A
:1033F0006F8FBFF34F8FFEE7B005002038B5C3686D
:10340000DC6824B304F118052846FFF746F8184B8A
:103410001B682BBB251D2846FFF73FF8E06A0123F8
:103420008340144A11680B43136000EB8000294667
:10343000114B03EB8000FFF70CF8E26A0F4B1B689F
:10344000DB6A9A4211D901200D4B186038BD4FF04C
:10345000500383F31188BFF36F8FBFF34F8FFEE7E5
:1034600029460848FEF7F5FFE7E70020EEE700BF32
:1034700088040020A804002024050020B0050020B6
:103480009C040020E0040020034B1B680360034BF6
:103490001B684360704700BF98040020AC04002004
:1034A000F8B5C8B10C460546F9B100F0F3FA1B4B6C
:1034B00019686B68C81A2268B2F1FF3F26D0184E0F
:1034C00036682F68B74201D08B4224D9824215D882
:1034D0000023236001241AE04FF0500383F3118886
:1034E000BFF36F8FBFF34F8FFEE74FF0500383F3AF
:1034F0001188BFF36F8FBFF34F8FFEE75B1A134442
:1035000023602846FFF7C0FF002400E0002400F0FD
:10351000E3FA2046F8BD0124F9E700BFAC0400201F
:1035200098040020014B01221A6070479C0400207F
:10353000054B1B6833B1054B1B680BB1002070476E
:103540000220704701207047A40400208804002056
:10355000002851D038B50446C36A294A1268D26A95
:10356000934241D28269002A05DB254A1268D26A59
:10357000C2F107028261616903EB8303214A02EB16
:103580008303994205D01E4B1B68DB6AE36201206E
:1035900038BD251D2846FEF780FFA0B1184B1B68DB
:1035A000D86AE062012404FA00F3174A11680B4359
:1035B000136000EB80002946124B03EB8000FEF7FE
:1035C00048FF2046E4E7E26A02EB82039B000D49D4
:1035D000CB58002BE2D1012303FA02F20A490B680F
:1035E00023EA02030B60D9E7426C054B1B68DB6AD8
:1035F0009A4203D30020CBE7002070470120C7E7A1
:10360000B005002024050020A804002000284BD08D
:1036100038B50446264B1B68834208D04FF0500350
:1036200083F31188BFF36F8FBFF34F8FFEE7836C77
:1036300043B94FF0500383F31188BFF36F8FBFF38B
:103640004F8FFEE7013B8364C16A426C91422DD0EB
:103650000BB1002038BD051D2846FEF71EFF68B9D6
:10366000E36A03EB8302920012498A5832B90122BD
:103670009A4011490B6823EA02030B60606CE06218
:10368000C0F10703A361012404FA00F30A4A116898
:103690000B43136000EB80002946064B03EB8000D0
:1036A000FEF7D7FE2046D5E7002070470020D1E77F
:1036B000B005002024050020A8040020002855D0D3
:1036C00038B50446836C43B94FF0500383F3118837
:1036D000BFF36F8FBFF34F8FFEE7426C8A4200D279
:1036E0000A46E16A914201D0012B00D038BD204B3F
:1036F0001B68A34231D0E262A369002B02DBC2F156
:103700000702A261626901EB81011A4B03EB81039D
:103710009A42EBD1251D2846FEF7BFFE68B9E36A41
:1037200003EB8302920013498A5832B901229A406E
:1037300011490B6823EA02030B60E06A012383400E
:103740000D4A11680B43136000EB80002946094BBA
:1037500003EB8000FEF77DFEC8E74FF0500383F3D4
:103760001188BFF36F8FBFF34F8FFEE7704700BF25
:10377000B005002024050020A8040020054B1B688C
:1037800023B1044B1A68936C01339364014B18689E
:10379000704700BFB0050020124A12F0070F1ED07C
:1037A000D11D21F00701C1F5406313440A460E48BC
:1037B0000260002141601344083B23F007030B48DB
:1037C000036059601960991A51601360084B1960C1
:1037D000084B1960084B4FF000421A6070474FF4D5
:1037E0004063E4E7CC050020C4050020C0050020AC
:1037F000B8050020BC050020B4050020164B1A4671
:103800001B688342FBD3516802EB010C844509D04D
:10381000416800EB010C634509D00360904219D068
:10382000106070474068014451601046F0E710B4E2
:103830000A4C2468A3420BD05B68194441601368AA
:103840001B680360904200D010605DF8044B704725
:103850000460F7E7704700BFC4050020C0050020E2
:1038600038B50446FFF730FC364B1B68B3B1364B16
:103870001B681C424CD1002C4CD004F1080214F0FF
:10388000070F02D022F007020832002A51D02F4B36
:103890001B6893424FD32E490C6804E0FFF77CFF6E
:1038A000E5E721461C466368934202D22368002B59
:1038B000F7D1244B1B68A3423FD00D68083523681D
:1038C0000B6063689B1A102B10D9A01810F0070F1B
:1038D00008D04FF0500383F31188BFF36F8FBFF30D
:1038E0004F8FFEE743606260FFF788FF6268174909
:1038F0000B689B1A0B60174909688B4201D2154966
:103900000B60114B1B68134363600023236002E0CC
:10391000002500E00025FFF76BFC15F0070F0ED027
:103920004FF0500383F31188BFF36F8FBFF34F8FB6
:10393000FEE70025EFE70025EDE70025EBE7284649
:1039400038BD00BFC0050020B4050020BC05002024
:10395000C4050020B805002080B338B50446A0F1A6
:10396000080550F8043C164A1268134208D14FF07B
:10397000500383F31188BFF36F8FBFF34F8FFEE7C0
:1039800050F8081C41B14FF0500383F31188BFF386
:103990006F8FBFF34F8FFEE723EA020340F8043C2A
:1039A000FFF792FB54F8041C064A13680B4413609B
:1039B0002846FFF723FFFFF71BFC38BD704700BF09
:1039C000B4050020BC05002082B0002301930D4BFC
:1039D0001B68B3F1FF3F08D04FF0500383F3118809
:1039E000BFF36F8FBFF34F8FFEE74FF0500383F3AA
:1039F0001188BFF36F8FBFF34F8F019B002BFCD05B
:103A000002B070470C00002008480068006880F38E
:103A100008884FF0000080F3148862B661B6BFF3E7
:103A20004F8FBFF36F8F00DF00BF000008ED00E095
:103A3000DFF80C00016841F470010160704700007C
:103A400088ED00E04FF0807340F8043C21F0010164
:103A500040F8081C054B40F80C3C40F8202C6FF057
:103A6000020340F8243C4438704700BFC9390008BD
:103A7000074B19680868B0E8F04F80F30988BFF376
:103A80006F8F4FF0000080F311887047AFF3008014
:103A9000B00500204FF0500383F31188BFF36F8F00
:103AA000BFF34F8F0B4A136801331360012B00D013
:103AB00070474FF0E023D3F8043D13F0FF0FF7D029
:103AC0004FF0500383F31188BFF36F8FBFF34F8F15
:103AD000FEE700BF0C000020094B1B6843B94FF004
:103AE000500383F31188BFF36F8FBFF34F8FFEE74F
:103AF000013B034A13600BB983F31188704700BF81
:103B00000C00002000000000000000000000000089
:103B1000EFF30980BFF36F8F154B1A681EF0100F7B
:103B200008BF20ED108A20E9F04F10602DE9090050
:103B30004FF0500080F31188BFF34F8FBFF36F8FAA
:103B4000FFF7F8FB4FF0000080F3118809BC1968FB
:103B50000868B0E8F04F1EF0100F08BFB0EC108AF4
:103B600080F30988BFF36F8F704700BFAFF3008009
:103B7000B005002008B54FF0500383F31188BFF360
:103B80006F8FBFF34F8FFFF7A7FA28B14FF0E023F5
:103B90004FF08052C3F8042D002383F3118808BD31
:103BA0004FF0E022002313619361054B1B68054928
:103BB000A1FB03139B09013B53610723136170476A
:103BC00008000020D34D62104FF0E023D3F8002D01
:103BD0003D4B9A421CD04FF0E023D3F8002D3B4BD5
:103BE0009A421ED030B583B0394B1A78D2B20192C6
:103BF000FF221A701B78DBB28DF803309DF803307A
:103C000003F05003334A1370334B07221A601BE052
:103C10004FF0500383F31188BFF36F8FBFF34F8FC3
:103C2000FEE74FF0500383F31188BFF36F8FBFF3AC
:103C30004F8FFEE7284A1368013B13609DF803305D
:103C40005B00DBB28DF803309DF8033013F0800F7A
:103C5000F0D1214B1B68032B08D04FF0500383F3A6
:103C60001188BFF36F8FBFF34F8FFEE71B021A4A15
:103C7000136003F4E0631360019BDBB2144A13701A
:103C80004FF0E024D4F8203D43F47003C4F8203D05
:103C9000D4F8203D43F07043C4F8203DFFF780FF87
:103CA00000250E4B1D60FFF7C3FED4F8343F43F0F0
:103CB0004043C4F8343FFFF7A7FEFFF73BFBFFF795
:103CC00083FE284603B030BD71C20F4170C20F4160
:103CD00000E400E0D0110020CC1100200C000020F6
:103CE000EFF305830F2B0FD9114A9B5CDBB2114A0E
:103CF00012789A4208D94FF0500383F31188BFF32A
:103D00006F8FBFF34F8FFEE74FF0E023D3F80C3DEA
:103D100003F4E063084A1268934208D94FF0500355
:103D200083F31188BFF36F8FBFF34F8FFEE77047A8
:103D3000F0E300E0D0110020CC110020842801D055
:103D40000330704700207047EFF30580003818BF3C
:103D50000120704708B5FFF77DF9002008BD2DE967
:103D6000F04387B00E464469C4B18569B5B1476870
:103D7000D0F80080D0F81090B0F90800FFF7DEFF0F
:103D800002950194009033464A4641463846FFF773
:103D9000F5F80590059807B0BDE8F083446805681C
:103DA0000769B0F90800FFF7C9FF05AB0193009060
:103DB0003346BAB229462046FFF71AF90128E9D05E
:103DC0000020E8E708B500B90120FFF78DFA0020D0
:103DD00008BD08B5416819B10120FEF7B4FD08BD62
:103DE0000120FEF7A5FDFAE730B583B0002301936B
:103DF00010B30C460546FFF7A7FFA0B101AA0021AA
:103E00002846FEF7DBFE012818D1019BC3B14FF015
:103E1000E0234FF08052C3F8042DBFF34F8FBFF360
:103E20006F8F002006E021462846FEF7F4FD0128AA
:103E300008D1002003B030BD8020FBE7FF20F9E768
:103E40000020F7E7FF20F5E710B582B00446002315
:103E50000193FFF779FF98B101A92046FEF782FD93
:103E600001281AD1019BD3B14FF0E0234FF08052CB
:103E7000C3F8042DBFF34F8FBFF36F8F002008E00E
:103E800000231A4619462046FEF782FC012802D07C
:103E9000FF2002B010BD0020FBE7FF20F9E7002063
:103EA000F7E700286AD010B50446436A33B943687F
:103EB000B3F5827F05D00023C36102E000230361D4
:103EC00043610023A36294F85D30002B4DD00223A0
:103ED00084F85D302268136823F040031360E368C0
:103EE000B3F5E06F47D90022B3F5706F04D0B3F596
:103EF000E06F01D00023A362636803F48273A168BA
:103F000001F404410B43216901F002010B43616993
:103F100001F001010B43A16901F400710B43E16958
:103F200001F038010B43216A01F080010B43A16AC3
:103F300001F4005120680B430360638B03F004031A
:103F4000616A01F010010B43616B01F008010B4342
:103F5000E16801F470610B43216813434B6000205A
:103F60002066012384F85D3010BD84F85C30204663
:103F7000FCF708FCABE74FF48052B5E7012070472F
:103F8000DFF834D0FEF722F80C480D490D4A002323
:103F900002E0D458C4500433C4188C42F9D30A4AFE
:103FA0000A4C002301E013600432A242FBD300F06C
:103FB00017F8FCF749FBFEE7003000200000002066
:103FC000740000206450000874000020E0110020FC
:103FD000FEE70000014B1868704700BF100000208A
:103FE00070B50D4D0D4C641BA4100026A64209D1DE
:103FF0000B4D0C4C00F07CFF641BA4100026A64265
:1040000005D170BD55F8043B98470136EEE755F8E9
:10401000043B98470136F2E75C5000085C5000080A
:104020005C500008605000080A44914200F1FF33E0
:1040300000D1704710B511F8014B03F8014F9142C0
:10404000F9D110BD02440346934200D1704703F8F2
:10405000011BF9E70FB40A4B13B51C6824B1A3691F
:1040600013B9204600F066F805AB049AA1680193E5
:10407000204600F083F902B0BDE8104004B070475C
:1040800010000020002310B50446C0E90033C0E949
:104090000433836081814366C281836119460822AB
:1040A0005C30FFF7CFFF054B6362054BA362054B06
:1040B000E362054B2462236310BD00BF1949000869
:1040C0003B4900087349000897490008014900F07E
:1040D000AFB800BF714C000870B568234D1E5D433A
:1040E0000E4605F1740100F0C5F8044640B1002108
:1040F000C0E900160C30A06005F16802FFF7A2FFCE
:10410000204670BD014800F0B3B800BFD2110020B6
:10411000014800F0AEB800BFD2110020014800F005
:10412000A7B800BFD3110020014800F0A2B800BF1B
:10413000D311002010B50446FFF7F0FFA3691BB1AF
:10414000BDE81040FFF7F0BFC4E912332365134BFD
:10415000134A1B68A262A34204BF0123A361204645
:1041600000F020F86060204600F01CF8A0602046B7
:1041700000F018F80022E06004216068FFF782FF79
:10418000A06801220921FFF77DFFE06802221221C9
:10419000FFF778FF0123A361D2E700BFC44F0008F7
:1041A000CD400008F8B50746FFF7ACFF1E4B1E6870
:1041B000B36913B93046FFF7BDFF4836D6E901347D
:1041C000013B03D533680BB33668F7E7B4F90C50FD
:1041D000D5B9164BE36004F15800656600F047F866
:1041E000FFF796FFC4E90155C4E904552560A561B0
:1041F0000822294604F15C00FFF724FFC4E90D55AD
:10420000C4E912552046F8BD6834D9E70421384680
:10421000FFF762FF044630600028D5D1FFF778FF32
:104220000C233B60EEE700BFC44F00080100FFFF16
:104230002DE9F8430646884600F148040027D4E9F2
:104240000195B9F1010905D52468002CF7D138464C
:10425000BDE8F883AB89012B07D9B5F90E300133DE
:1042600003D029463046C04707436835E9E7704721
:1042700070477047F8B5CD1C25F0030508350C2DA7
:1042800038BF0C25002D064601DBA94203D90C23BB
:1042900033600020F8BD00F09FFD21490A681446F4
:1042A0009CB9204F3B6823B92146304600F024FBDF
:1042B00038602946304600F01FFB431C23D10C23F5
:1042C0003360304600F08EFDE3E723685B1B17D4B4
:1042D0000B2B03D923601C44256004E06368A242D1
:1042E0000CBF0B605360304600F07CFD04F10B0006
:1042F000231D20F00700C21ACCD01B1AA350C9E717
:1043000022466468CCE7C41C24F00304A042E3D036
:10431000211A304600F0F0FA0130DDD1CFE700BFBE
:10432000D4110020D81100209368013B002B10B459
:10433000936008DA9469A34201DB0A2903D15DF88E
:10434000044B00F02DBB1368581C10601970084610
:104350005DF8044B7047F8B506460F461446D5186D
:10436000AC4201D1002007E014F8011B3A46304668
:10437000FFF7DAFF431CF3D1F8BD00002DE9F04F41
:104380000D469DB014469846064618B183690BB990
:10439000FFF7D0FE884B9D421BD175686B6ED90725
:1043A00005D4AB899A0502D4A86DFFF761FFAB89EC
:1043B0001B0701D52B69EBB92946304600F054FBA9
:1043C000C0B16B6EDC070ED54FF0FF301DB0BDE8FD
:1043D000F08F7A4B9D4201D1B568DFE7784B9D4263
:1043E00008BFF568DAE7AB899805EDD4A86DFFF74B
:1043F00040FFE9E70023099320238DF82930CDF809
:104400000C803023DFF8BC818DF82A304FF0010991
:1044100023469A4613F8012B0AB1252AF9D1BAEBA3
:10442000040B0BD05B46224629463046FFF793FF2C
:10443000013000F0A980099A5A4409929AF8003094
:10444000002B00F0A18000234FF0FF32CDE90523BF
:104450000AF1010A049307938DF853301A935446D6
:10446000052214F8011B5748FBF7DAFE049AD8B965
:10447000D10644BF20238DF85330130744BF2B23AC
:104480008DF853309AF800302A2B15D0079A5446ED
:1044900000204FF00A0C214611F8013B303B092B5C
:1044A0004DD9B0B1079214E0A0EB080309FA03F369
:1044B00013430493A246D2E7039B191D1B68039183
:1044C000002BBBBF5B4242F0020207930793B8BFC9
:1044D000049223782E2B0CD163782A2B34D1039BA2
:1044E0001A1D1B680392002BB8BF4FF0FF33023434
:1044F0000593DFF8E0A0217803225046FBF790FEF9
:1045000038B1049BA0EB0A004022824013430134DF
:10451000049314F8011B2C488DF828100622FBF791
:104520007FFE00283FD0294B1BBB039B073323F0A2
:10453000070308330393099B3B44099368E70CFB8B
:1045400002320C460120A6E70023013405931946E8
:104550004FF00A0C204610F8012B303A092A03D9F3
:10456000002BC6D00591C4E70CFB012104460123B2
:10457000F0E703AB00932A46154B04A93046AFF38E
:1045800000800746781CD6D16B6ED90705D4AB895D
:104590009A0502D4A86DFFF76CFEAB895B063FF568
:1045A00013AF099812E703AB00932A46084B04A9FE
:1045B000304600F07FF8E4E7E84F000808500008B4
:1045C000C84F0008285000083250000800000000C2
:1045D000574300082E5000082DE9F047164699462B
:1045E0008A680B69DDF820809342B8BF13463360B8
:1045F00091F8432007460C460AB101333360236823
:10460000990642BF336802333360256815F006050A
:1046100006D104F1190AE36832689B1AAB4226DC22
:1046200094F84320131E226818BF012392062BD44E
:1046300004F1430249463846C04701301ED0236882
:10464000226903F00603042B02BFE5683368ED1A04
:10465000A3680CBF25EAE57500259342C4BF9B1AE9
:10466000ED1800261A34B5421AD1002008E00123C3
:10467000524649463846C047013003D14FF0FF301B
:10468000BDE8F0870135C6E7E1185A1C302081F8F3
:104690004300224494F8451082F843100233C7E7E0
:1046A0000123224649463846C0470130E6D001364C
:1046B000D9E700002DE9FF470F7E0C9D782F91462A
:1046C00080460C469A4601F1430207D8622F0AD869
:1046D000002F00F0D480582F00F0C08004F1420574
:1046E00084F842703AE0A7F16303152BF6D801A1D4
:1046F00051F823F04D47000861470008DD460008E7
:10470000DD460008DD460008DD4600086147000878
:10471000DD460008DD460008DD460008DD460008ED
:10472000654800088D4700081F480008DD4600085E
:10473000DD46000887480008DD4600088D47000870
:10474000DD460008DD460008274800082B681A1DD2
:104750001B682A6004F1420584F8423001239FE07F
:1047600020682B68070603F10401296001D51E6843
:1047700003E04606FBD5B3F90060002E03DA2D23D3
:10478000764284F843305A480A2312E02B682068A6
:10479000191D2960050601D51E6802E04106FBD5FA
:1047A0001E8853486F2F0CBF08230A23002184F86A
:1047B00043106568A560002DA2BF216821F00401A7
:1047C00021600EB9002D4BD01546B6FBF3F103FB6B
:1047D0001167C75D05F8017D3746BB420E46F4D927
:1047E000082B0BD12368DE0708D52369616899423D
:1047F000DEBF302305F8013C05F1FF35521B226175
:10480000CDF800A04B4603AA21464046FFF7E4FE40
:1048100001304AD14FF0FF3004B0BDE8F087236883
:1048200043F0200323603348782784F845702368D9
:1048300029681F0651F8046B02D45F0648BFB6B260
:10484000DF0748BF43F02003296048BF23601EB93B
:10485000236823F0200323601023A7E72448E4E71C
:104860001546BDE72B6826686169181D2860350666
:104870001B6801D5196002E07006FBD51980002382
:1048800023611546BCE72B681A1D2A601D68626803
:1048900000212846FBF7C4FC08B1401B6060636838
:1048A0002361002384F84330AAE723692A46494656
:1048B0004046D0470130ADD023689B0713D4E06851
:1048C000039B9842B8BF1846A6E7012332464946E3
:1048D0004046D04701309DD00135E36803995B1A0B
:1048E000AB42F2DCEBE7002504F11906F5E700BF67
:1048F000395000084A50000838B5064D00230446D8
:1049000008462B60FDF76CFB431C02D12B6803B1FA
:10491000236038BDDC11002010B50C46B1F90E1033
:1049200000F0B2FA0028ABBF636DA3891B1823F413
:104930008053ACBF6365A38110BD2DE9F0411F46D4
:104940008B89DB0505460C46164605D5B1F90E10D8
:104950000223002200F0C8F9A389B4F90E1023F451
:104960008053A38132463B462846BDE8F04100F023
:1049700069B810B50C46B1F90E1000F0B5F9431C3A
:10498000A38915BF606523F4805343F48053A3814A
:1049900018BFA38110BDB1F90E1000F0D3B800000C
:1049A000F8B50E461446054618B183690BB9FFF7F2
:1049B000C1FB214B9C422BD16C68A369A360A389E6
:1049C0001A072FD523696BB323692068C01A63695E
:1049D000F6B28342374604DC2146284600F048F907
:1049E00030BBA368013BA36023685A1C22601E7081
:1049F00063690130834204D0A389DB0706D50A2E00
:104A000004D12146284600F033F988B93846F8BD6C
:104A10000A4B9C4201D1AC68CFE7094B9C4208BFCE
:104A2000EC68CAE72146284600F01EF80028CBD0E3
:104A30004FF0FF37EAE700BFE84F000808500008D2
:104A4000C84F000838B5074D0446084611460022F5
:104A50002A601A46FDF7F8FA431C02D12B6803B10D
:104A6000236038BDDC110020324B70B51D6806464E
:104A70000C4625B1AB6913B92846FFF75BFB2E4BFB
:104A80009C420FD16C68A389B4F90C2019072CD46F
:104A9000DD0611D40923336042F04003A3814FF0B7
:104AA000FF303EE0254B9C4201D1AC68EBE7244B44
:104AB0009C4208BFEC68E6E7580712D5616B41B12C
:104AC00004F14403994202D0304600F091F90023EA
:104AD0006363A38923F02403A38100236360236914
:104AE0002360A38943F00803A38123694BB9A389F9
:104AF00003F42073B3F5007F03D02146304600F065
:104B00002BF9A089B4F90C2010F001030AD000237E
:104B1000A36063695B42A361236943B910F080001D
:104B2000BAD170BD810758BF6369A360F4E7002064
:104B3000F7E700BF10000020E84F00080850000809
:104B4000C84F000838B5064D0023044608462B60C0
:104B5000FDF788FA431C02D12B6803B1236038BDEE
:104B6000DC1100208A892DE9F041054610070C462A
:104B700058D44B68002B05DC0B6C002B02DC0020AA
:104B8000BDE8F081E66A002EF9D0002312F48052CD
:104B90002F68216A2B6032D0606DA3895A0705D532
:104BA0006368C01A636B0BB1236CC01A0023024602
:104BB000E66A216A2846B047431CA38906D12968C2
:104BC0001D292BD8294A0A41D60727D40022626022
:104BD000D9042269226004D5421C01D12B6803B993
:104BE0006065616B2F600029C9D004F144039942CC
:104BF00002D0284600F0FCF800206063C0E70123E3
:104C00002846B047411CC8D12B68002BC5D01D2BAE
:104C100001D0162B01D12F60B1E7A38943F04003E7
:104C2000A381ADE70F69002FA9D093070E6808BFD5
:104C30004B690F6018BF0023A6EB07088B60B8F123
:104C4000000F9CDD216AA66A43463A462846B047D3
:104C5000002806DCA38943F04003A3814FF0FF3016
:104C60008EE70744A8EB0008E9E700BFFEFFBFDFBF
:104C700038B50B6905460C4613B90025284638BDE2
:104C800018B183690BB9FFF755FA144B9C421BD13D
:104C90006C68B4F90C30002BEFD0626ED00704D4EE
:104CA000990502D4A06DFFF7E3FA28462146FFF7E5
:104CB00059FF636EDA070546E0D4A3899B05DDD46E
:104CC000A06DFFF7D6FAD9E7054B9C4201D1AC683D
:104CD000DFE7044B9C4208BFEC68DAE7E84F0008C6
:104CE00008500008C84F000838B5074D044608466C
:104CF000114600222A601A46FDF7BEF9431C02D174
:104D00002B6803B1236038BDDC11002070B50C4660
:104D1000B1F90E10002996B015461E460DDAA3898A
:104D200013F0800F4FF000010CBF4FF4806340235D
:104D3000002031602B6016B070BD6A4600F0B6F8F6
:104D40000028ECDB019901F47041A1F500535942B0
:104D500059414FF48063EBE78B8973B59D07064695
:104D60000C4607D504F147032360236101236361E7
:104D700002B070BD01AB6A46FFF7C8FF0099054657
:104D80003046FFF777FA48B9B4F90C309A05EFD4FA
:104D900023F0030343F00203A381E3E70D4BB36267
:104DA000A389206043F08003A381009B6361019B82
:104DB00020615BB1B4F90E10304600F089F828B1DB
:104DC000A38923F0030343F00103A381A3891D43B7
:104DD000A581CDE7CD4000080148FFF749BA00BFE3
:104DE000D11100200148FFF744BA00BFD1110020C3
:104DF00037B5002944D051F8043C0190002BA1F1B3
:104E00000404B8BFE418FFF7E7FF1E4A01981368CF
:104E100033B96360146003B0BDE83040FFF7E2BF10
:104E2000A34208D9256861198B4201BF19685B68E4
:104E300049192160EDE71A465B680BB1A342FAD924
:104E400011685518A5420BD1246821445418A34277
:104E50001160E0D11C685B6853600C441460DAE7B1
:104E600002D90C230360D6E7256861198B4204BF81
:104E700019685B68636004BF491921605460CAE720
:104E800003B030BDD411002038B5074D04460846A4
:104E9000114600222A601A46FDF7C6F8431C02D1CB
:104EA0002B6803B1236038BDDC11002038B5074DF5
:104EB00000230446084611462B60FDF7D6F8431C34
:104EC00002D12B6803B1236038BD00BFDC11002084
:104ED00038B5064D0023044608462B60FDF7CAF896
:104EE000431C02D12B6803B1236038BDDC110020C4
:104EF000F8B500BFF8BC08BC9E467047F8B500BFC7
:084F0000F8BC08BC9E46704796
:104F0800644F00083503000800000000000000009E
:104F1800800000000000000000000000584F00085A
:104F28001D050008000000000000000080000000CF
:104F380000000000000000004572726F722C2069AA
:104F48006E204572726F722048616E646C657200E3
:104F580073656E736F725F72656164006465666124
:104F6800756C745461736B0049444C450000000033
:104F78000000000000000000400041004200430023
:104F8800440045000102030405060708090A0B0C42
:104F98000D0E0F1002030405060708090A0B0C0D75
:104FA8000E0F1010000000000102030400000000B2
:104FB800000000000102030406070809140000208D
:104FC80000000000000000000000000000000000D9
:104FD80000000000000000000000000000000000C9
:104FE80000000000000000000000000000000000B9
:104FF80000000000000000000000000000000000A9
:105008000000000000000000000000000000000098
:105018000000000000000000000000000000000088
:10502800232D302B2000686C4C0065666745464789
:10503800003031323334353637383941424344450C
:10504800460030313233343536373839616263647B
:045058006566000089
:04505C00F90100084E
:04506000D101000872
:10506400010000001000000000127A00AAAAAAAAF7
:105074001400002000000000E84F00080850000859
:10508400C84F0008000000000000000000000000FD
:10509400000000000000000000000000000000000C
:1050A40000000000000000000000000000000000FC
:1050B40000000000000000000000000000000000EC
:1050C40000000000000000000000000000000000DC
:0450D40000000000D8
:0400000508003F812F
:00000001FF
